:10000000B4C00000DAC00000D8C00000D6C00000B4
:10001000D4C00000D2C00000D0C00000CEC000009C
:10002000CCC00000CAC00000C8C00000C6C00000AC
:10003000C4C000000C94CE13C0C00000BEC00000BD
:100040000C946226BAC000000C946C280C949E2874
:10005000B4C00000B2C00000B0C00000AEC00000DC
:10006000ACC00000AAC00000001D3A2774694E53BE
:10007000E8F5D2CF9C81A6BBCDD0F7EAB9A4839E88
:1000800025381F02514C6B76879ABDA0F3EEC9D478
:100090006F7255481B06213C4A57706D3E23041968
:1000A000A2BF9885D6CBECF1130E2934677A5D4058
:1000B000FBE6C1DC8F92B5A8DEC3E4F9AAB7908D48
:1000C000362B0C11425F78659489AEB3E0FDDAC738
:1000D0007C61465B0815322F5944637E2D30170A28
:1000E000B1AC8B96C5D8FFE2263B1C01524F687518
:1000F000CED3F4E9BAA7809DEBF6D1CC9F82A5B808
:10010000031E3924776A4D50A1BC9B86D5C8EFF2F7
:100110004954736E3D20071A6C71564B1805223FE7
:100120008499BEA3F0EDCAD735280F12415C7B66D7
:10013000DDC0E7FAA9B4938EF8E5C2DF8C91B6ABC7
:10014000100D2A3764795E43B2AF8895C6DBFCE1B7
:100150005A47607D2E3314097F6245580B16312CA7
:10016000978AADB0E3FED9C4C32811241FBECFEFD8
:10017000D8E0DEBFCDBF13E0A0E0B1E0EEE8F5E5EA
:1001800002C005900D92AA33B107D9F726E0AAE381
:10019000B3E001C01D92A534B207E1F710E0C5EB52
:1001A000D0E004C02197FE010E945329C43BD1072F
:1001B000C9F70E94EE1F0C94C52A22CF2F923F92BE
:1001C0004F925F926F927F928F929F92AF92BF9267
:1001D000CF92DF92EF92FF920F931F93CF93DF9313
:1001E000CDB7DEB72A970FB6F894DEBF0FBECDBFEE
:1001F000209073053090740500917105109172057F
:10020000E0910A04F0910B04C080D180E280F38079
:10021000A7019601D8016D917D918D919C910E94CD
:10022000FB2587FF1AC3A7019601F8016489758928
:10023000868997890E94712418160CF011C32091A9
:100240008505309186053A8329835901AA0CBB1C88
:10025000AA0CBB1C48018A0C9B1CA7019601D40167
:100260006D917D918D919C910E94FB25B4E0AB0E28
:10027000B11CA00EB11E18160CF0E2C2F4E08F1AE9
:100280009108A7019601D40114966D917D918D91ED
:100290009C9117970E94FB2518160CF4C6C2298161
:1002A0003A813093860520938505220F331F220F54
:1002B000331F3A872987F901E00FF11F40805180F1
:1002C000628073802C5F3F4F3A832983F901E00FEE
:1002D000F11F80819181A281B3818D839E83AF8341
:1002E000B8879C01AD01C301B2010E947124811144
:1002F000C6C2A3019201C701B6010E94712487FF03
:10030000B4C2A985BA85A20DB31DBA83A9838D9104
:100310009D910D90BC91A02D80931B0690931C067F
:10032000A0931D06B0931E0603E915E02BE835E007
:1003300043E256E06FE176E08BE196E00E94A52073
:1003400020907B0530907C058090790590907A050F
:10035000E0910A04F0910B04C080D180E280F38028
:10036000A7019601F40160817181828193810E94CD
:10037000FB2587FFFCC2A7019601D40154966D911D
:100380007D918D919C9157970E94712418160CF0C5
:10039000F1C2E0918705F0918805FA83E9838F0126
:1003A000000F111F000F111F5401A00EB11EA70155
:1003B0009601D5016D917D918D919C910E94FB25B7
:1003C0000C5F1F4F080D191D18160CF0C3C2F4E086
:1003D000AF1AB108A7019601D50114966D917D91D0
:1003E0008D919C9117970E94FB2518160CF4A7C2BB
:1003F00029813A813093880520938705220F331F86
:10040000220F331F3E832D83F901E80DF91D408033
:1004100051806280738089010C5F1F4FF401E00FEF
:10042000F11F80819181A281B38189839A83AB83FB
:10043000BC839C01AD01C301B2010E9471248111F2
:10044000A6C2A3019201C701B6010E94712487FFD1
:1004500096C2AD81BE81A20DB31DBA83A9838D91D1
:100460009D910D90BC91A02D809327069093280616
:10047000A0932906B0932A0603EC15E02BEB35E098
:100480004FE256E06BE276E087E296E00E94A5201C
:10049000209081053090820580907F0590908005A6
:1004A000E0910A04F0910B04C080D180E280F380D7
:1004B000A7019601F40160817181828193810E947C
:1004C000FB2587FFDAC2A7019601D40154966D91EE
:1004D0007D918D919C9157970E94712418160CF074
:1004E000CFC2E0918905F0918A05FA83E9838F01F3
:1004F000000F111F000F111F5401A00EB11EA70104
:100500009601D5016D917D918D919C910E94FB2565
:100510000C5F1F4F080D191D18160CF0A1C2F4E056
:10052000AF1AB108A7019601D50114966D917D917E
:100530008D919C9117970E94FB2518160CF485C28B
:1005400029813A8130938A0520938905220F331F30
:10055000220F331F3E832D83F901E80DF91D4080E2
:1005600051806280738089010C5F1F4FF401E00F9E
:10057000F11F80819181A281B38189839A83AB83AA
:10058000BC839C01AD01C301B2010E9471248111A1
:1005900084C2A3019201C701B6010E94712487FFA2
:1005A00074C2AD81BE81A20DB31DBA83A9838D91A2
:1005B0009D910D90BC91A02D8093330690933406AD
:1005C000A0933506B093360603EF15E02BEE35E029
:1005D0004BE356E067E376E083E396E00E94A520D4
:1005E00082E090E00E947213E0910A04F0910B0403
:1005F000408151816281738190E080E00E946E139E
:100600006091FF03709100048091010490910204B5
:100610000E94092520E030E040E85FE40E94FF25C9
:100620006B017C016091FB037091FC038091FD03E1
:100630009091FE030E9409259B01AC01C701B60100
:100640000E94FA232DEB37E346E855E30E94FF258D
:10065000AB01BC0181E090E00E946E138090030426
:1006600090900404A0900504B090060420E030E0CF
:1006700040E85FEBC501B4010E947124E0910A04D7
:10068000F0910B04FA83E983882311F1C080D180B3
:10069000E280F380A7019601C501B4010E94F9230D
:1006A0004B015C0120E030E040E054E3C701B601BB
:1006B0000E94FF259B01AC01C501B4010E94FB25EE
:1006C000181634F08AE292E090935D0380935C0305
:1006D00080910904882331F08AE292E090935D03CF
:1006E00080935C03C090EF03D090F003E090F1039F
:1006F000F090F203FFEFCF1ADF0AEF0AFF0AC09271
:10070000EF03D092F003E092F103F092F203C114F0
:10071000D104E104F10499F48091F3039091F4037E
:10072000A091F503B091F6030196A11DB11D809330
:10073000F3039093F403A093F503B093F603809032
:10074000F7039090F803A090F903B090FA0360913A
:10075000F3037091F4038091F5039091F6030E94E6
:100760000925A50194010E94FF2520E030E040E822
:100770005FE40E94FF252B013C01C701B6010E94E6
:100780000925A50194010E94FF259B01AC01C3012D
:10079000B2010E94FA23A981BA816D937D938D9352
:1007A0009C9313978091FB039091FC03A091FD0310
:1007B000B091FE030196A11DB11D8093FB039093A0
:1007C000FC03A093FD03B093FE03892B8A2B8B2B94
:1007D00099F48091FF0390910004A0910104B091DD
:1007E00002040196A11DB11D8093FF0390930004A4
:1007F000A0930104B09302042A960FB6F894DEBFCA
:100800000FBECDBFDF91CF911F910F91FF90EF9061
:10081000DF90CF90BF90AF909F908F907F906F9020
:100820005F904F903F902F900895E981FA81319722
:10083000FA83E98323CDE981FA813196FA83E9834A
:10084000D5016D917D918D919D915D01A7019601DD
:100850000E94712418167CF722CD1A8219821FCDAE
:10086000E4E0F0E0FA83E9831ACDE981FA812E0E03
:100870003F1EF10180819181A281B3814DCD2985F7
:100880003A85220D331DD9018D909D90AD90BC907D
:10089000E981FA812E0E3F1ED1018D919D910D901F
:1008A000BC91A02D89839A83AB83BC839C01AD014D
:1008B000C501B4010E9471248823C1F1A7019601EA
:1008C0006D817E818F8198850E94F9236B017C0167
:1008D000A30192016D817E818F8198850E94F92309
:1008E0009B01AC01C701B6010E9475246B017C011C
:1008F000AC019B0160E070E080E89FE30E94F92377
:1009000029813A814B815C810E94FF252B013C01AA
:10091000A5019401C701B6010E94FF259B01AC010E
:10092000C301B2010E94FA234B015C0180921B06B5
:1009300090921C06A0921D06B0921E06F5CCE9818D
:10094000FA813197FA83E98342CDE981FA813196C0
:10095000FA83E983D8016D917D918D919D918D01EF
:10096000A70196010E94712418167CF741CD1A82C6
:1009700019823ECDE4E0F0E0FA83E98339CD200E20
:10098000311EF10180819181A281B3816DCD2D81D4
:100990003E81220D331DD9018D909D90AD90BC906C
:1009A000200E311ED1018D919D910D90BC91A02DF5
:1009B0008D839E83AF83B8879C01AD01C501B401CF
:1009C0000E9471248823C1F1A701960169817A816F
:1009D0008B819C810E94F9236B017C01A301920110
:1009E00069817A818B819C810E94F9239B01AC01F2
:1009F000C701B6010E9475246B017C01AC019B010B
:100A000060E070E080E89FE30E94F9232D813E8141
:100A10004F8158850E94FF252B013C01A5019401BF
:100A2000C701B6010E94FF259B01AC01C301B201C1
:100A30000E94FA234B015C018092270690922806BF
:100A4000A0922906B0922A0617CDE981FA81319742
:100A5000FA83E98364CDE981FA813196FA83E983E7
:100A6000D8016D917D918D919D918D01A701960188
:100A70000E94712418167CF763CD1A82198260CD0A
:100A8000E4E0F0E0FA83E9835BCD200E311EF10152
:100A900080819181A281B3818FCD2D813E81220DF4
:100AA000331DD9018D909D90AD90BC90200E311ECC
:100AB000D1018D919D910D90BC91A02D8D839E8330
:100AC000AF83B8879C01AD01C501B4010E947124B8
:100AD0008823C1F1A701960169817A818B819C816C
:100AE0000E94F9236B017C01A301920169817A8143
:100AF0008B819C810E94F9239B01AC01C701B60147
:100B00000E9475246B017C01AC019B0160E070E0E8
:100B100080E89FE30E94F9232D813E814F81588513
:100B20000E94FF252B013C01A5019401C701B601DC
:100B30000E94FF259B01AC01C301B2010E94FA2370
:100B40004B015C018092330690923406A0923506E8
:100B5000B092360639CD0F931F93CF93DF93ECE518
:100B6000F3E087E094E097838683CAE0D4E0D093F3
:100B70009D03C0939C0307EF13E0158B048BF09348
:100B8000C703E093C603F583E48321E030E0DC0192
:100B90002D933C938EE392E0938782878CE094E0E0
:100BA0009983888340E050E060E87FEB4093030442
:100BB0005093040460930504709306044DEB57E3CF
:100BC00066E875E3D8014D935D936D937C9313971D
:100BD0002DED33E04BE55FE662EA72E7D9014D9314
:100BE0005D936D937C9313974AE255E267EC7BE546
:100BF0004093E1035093E2036093E3037093E403B3
:100C000048EA58E56FE076EA4093E5035093E6033F
:100C10006093E7037093E80346E55BE568E673E4F9
:100C20004093E9035093EA036093EB037093EC0362
:100C3000A0E5B3E0B383A2834EE453E011965C9346
:100C40004E9340E552E050934F0340934E03CDEE58
:100C5000D3E01596DC93CE93149713963C932E9382
:100C6000129717969C938E931697E2E4F3E08CE02C
:100C7000DF011D928A95E9F7EAE3F3E0F983E8835F
:100C80008FE090E09183808388ED91E0938382836D
:100C90008AEB91E09583848386E991E0978386834C
:100CA00023E935E04BE855E069EB75E08CE593E02E
:100CB0000E94EB2323EC35E04BEB55E069EE75E049
:100CC0008CE593E00E94EB2323EF35E04BEE55E0FB
:100CD00069E176E08CE593E00E94EB23E1E7F5E043
:100CE0008EE791E09183808386E691E0938382830F
:100CF000158A148A8EE491E09187808786E391E0DB
:100D000093878287178A168A8EE191E09787868774
:100D100086E091E0918B808B118E108E83E995E0B7
:100D20000E94852083EC95E00E94852083EF95E06A
:100D3000DF91CF911F910F910C9485200895EF9230
:100D4000FF920F931F93CF93DF93EA01F901DC0128
:100D50001496ED90FC90159712964D915C91139717
:100D60004E0D5F1D2881398118960D911C911997A0
:100D70000217130730F00D911C911197012B09F404
:100D800041C08A01021B130BDC0118968D919C91C6
:100D90008E199F09800F911F86179707DCF1C901F3
:100DA000860F971F8417950778F4718360833383C8
:100DB0002283158214821782168288819981680F96
:100DC000791F7983688316C011830083338322835C
:100DD000601B710B7583648390E080E01616170624
:100DE00014F49E2D8F2D96838783D701A60FB71FEE
:100DF000B983A88380E0DF91CF911F910F91FF907D
:100E0000EF90089518968D919C91821B930B8617F5
:100E100097075CF681E0EFCFCF92DF92EF92FF92DF
:100E2000CF93DF936B0184E4869FE001879FD00D11
:100E30001124CC5EDB4F8AA99BA9009721F00E9468
:100E4000232A1BAA1AAA84E48C9DF0018D9DF00D23
:100E50001124EC5EFB4F86A997A9009711F00E9420
:100E6000232A84E48C9DF0018D9DF00D1124EC5E0D
:100E7000FB4F138A128A168A178A108E118E128ED1
:100E8000138E148E158E168E178E10A211A281E06D
:100E900090E093A382A315A214A216A217A210A6F3
:100EA00011A613A612A615A614A616A617A610AA72
:100EB00011AA13AA12AA15AA14AA17AA16AA11AE41
:100EC00010AE12AE13AE14AE15AEDF01DE961D925B
:100ED0001D921D921C921397EE5BFF4F11821082A0
:100EE000DF91CF91FF90EF90DF90CF900895CF9357
:100EF000DF93FB01DC016D917C91DB011696CD91B6
:100F0000DC918081918123E0880F991F2A95E1F778
:100F1000AA81BB81A80FB91F8D919C91119724853F
:100F20003585220F331FEB016A817B81EB01C20FF4
:100F3000D31F0990D881C02D14962D913C9161E06A
:100F400070E0232B11F062E070E0C69F9001C79F14
:100F5000300DD69F300D1124A085B1852A9FB00198
:100F60002B9F700D3A9F700D1124A481B5812A9F8B
:100F7000F0012B9FF00D3A9FF00D11248E0F9F1F53
:100F8000FA019183808373836283DF91CF91089507
:100F90002F923F924F925F926F927F928F929F9289
:100FA000AF92BF92CF92DF92EF92FF920F931F9377
:100FB000CF93DF9300D000D000D0CDB7DEB7DC01F7
:100FC0001496ED91FC910190F081E02D8085918542
:100FD0009A838983A281B381BC83AB83FB01819017
:100FE0009190A190B190C12CD12C7601C814D90454
:100FF000EA04FB04CCF026960FB6F894DEBF0FBED1
:10100000CDBFDF91CF911F910F91FF90EF90DF90B7
:10101000CF90BF90AF909F908F907F906F905F9098
:101020004F903F902F900895448055806680778040
:101030004085518562857385CF0140969E838D835F
:10104000A081B1819D0183E0220F331F8A95E1F7D2
:10105000A981BA8112968D919C91D901A80FB91FCF
:101060002D903C9011970484F585E02DEE0FFF1F25
:101070008B819C81E80FF91F0190F081E02D14967F
:101080008D919C91892B41F581E090E0E89F900142
:10109000E99F300DF89F300D1124249F8001259F7A
:1010A000100D349F100D1124249DC001259D900D1D
:1010B000349D900D1124A8016D817E81820D931DB8
:1010C0000E94AC2AED81FE81E00FF11F9FEFC91A4B
:1010D000D90AE90AF90A8ACF82E090E0D7CFCF9304
:1010E000DF93DB01AA50BE4F2C91222369F024E448
:1010F000269FF001279FF00D1124EC5EFB4FEF01BE
:1011000019922A95E9F71C9224E4269FF001279F63
:10111000F00D1124EC5EFB4F1482158216821782AB
:101120001186108613861286118A108A17861686F3
:10113000DF91CF9171CE2F923F924F925F926F923B
:101140007F928F929F92AF92BF92CF92DF92EF9257
:10115000FF920F931F93CF93DF93CDB7DEB72897FE
:101160000FB6F894DEBF0FBECDBF24E4269FF0017A
:10117000279FF00D1124EC5EFB4F04811581268121
:101180003781012B022B032B09F4B7C02A016B0115
:101190007C0110E000E0812C912C54013F019F0163
:1011A000285F3F4F3C832B83CF0104969E838D8322
:1011B000AB81BC818D919C91ED81FE8140815181FB
:1011C0006281738184169506A606B706E4F10E9433
:1011D000232AD3011A968D919C91892B09F07EC008
:1011E00084E48C9DD0018D9DB00D1124AC5EBB4F6D
:1011F000BC83AB8350968D919C910E94232AEB81F6
:10120000FC81868597850E94232AC701B60104DEEA
:10121000C701B60128960FB6F894DEBF0FBECDBF4A
:10122000DF91CF911F910F91FF90EF90DF90CF90C2
:10123000BF90AF909F908F907F906F905F904F90F6
:101240003F902F904CCFFC01E00FF11F92819983CA
:10125000A381AA839F83A887312C212C24143504D1
:1012600064F089819A810E94232AEFEF8E1A9E0AE8
:10127000AE0ABE0A0C5F1F4F9BCFAF81B885ED91C0
:10128000FD91B887AF83309759F0848195810E9492
:10129000232AEF81F8853297808191810E94232A49
:1012A000BFEF2B1A3B0ADACF800F911FFC0184811C
:1012B00095810E94232A2B813C812F5F3F4F3C83E5
:1012C0002B83025F1F4FF501808191812B813C812F
:1012D000241535054CF30E94232A82CF10E000E04C
:1012E0001C821B8224E42C9DC0012D9D900D112495
:1012F000DC01A25EBB4F5D01E6CF28960FB6F894E5
:10130000DEBF0FBECDBFDF91CF911F910F91FF9038
:10131000EF90DF90CF90BF90AF909F908F907F9095
:101320006F905F904F903F902F90089524E4269FF8
:10133000F001279FF00D1124EC5EFB4F8289938909
:101340000497029758F485E090E0938B828B8FEF9F
:101350009FEFDC01828F938FA48FB58F08952F921A
:101360003F924F925F926F927F928F929F92AF9235
:10137000BF92CF92DF92EF92FF920F931F93CF9382
:10138000DF93CDB7DEB7AA970FB6F894DEBF0FBED6
:10139000CDBF9AA389A37E8B6D8B1A01098B1A8B03
:1013A0002B8B3C8B84E429893A89829F6001839F3F
:1013B000D00C112486010C5E1B4F89899A89AB8958
:1013C000BC89F80180839183A283B383AB01BC0104
:1013D000CD01B1DED601A85EBB4F84E0F1010190E2
:1013E0000D928A95E1F7F4E02F0E311C64E070E075
:1013F000D80114968D919C910E946D29F8019187D6
:101400008087892B09F0F5C04D895E8969897A89C1
:101410008B899C8990DE81E0AA960FB6F894DEBF96
:101420000FBECDBFDF91CF911F910F91FF90EF9035
:10143000DF90CF90BF90AF909F908F907F906F90F4
:101440005F904F903F902F900895A9A5BAA58D91D8
:101450009C91E98DFA8DE80FF91FF88FEF8BD10180
:101460008D919C91880F991FA9A1BAA1ED91FC9132
:10147000E80FF91F80819181EF89F88D9183808336
:10148000D10114962D913D914D915C9117972BA30D
:101490003CA34DA35EA362E070E08D899E890E940B
:1014A0006D29EF89F88D93838283892B09F4ACCF62
:1014B000F8E02F0E311C412C512C32012BA13CA104
:1014C0004DA15EA142165306640675069CF02B8D55
:1014D0003C8D4D8D5E8D2F5F3F4F4F4F5F4F2B8F5C
:1014E0003C8F4D8F5E8F498D5A8D4C5F5F4F5A8F69
:1014F000498F90C0610124E0C20ED11CD101ED9052
:10150000FC90EE0CFF1CEF89F88D82819381E80E30
:10151000F91E68E070E081E090E00E946D298C0186
:10152000D7018D939C93892B09F46ECF84E0F6014B
:10153000D80101900D928A95E1F7B8E02B0E311C8D
:10154000F80180819181A281B381181619061A06CB
:101550001B06DCF464E070E00E946D29D80115964A
:101560009C938E931497892B09F44ECFD12CC12CC8
:10157000812C912C5401F80180819181A281B38149
:1015800088169906AA06BB0634F0FFEF4F1A5F0AC9
:101590006F0A7F0A93CFF801E480F580EC0CFD1C04
:1015A00080E1F101DE01119601900D928A95E1F73B
:1015B000F0E12F0E311CA701BE016F5F7F4FA9A183
:1015C000BAA114968D919C9192DCF8018681978145
:1015D000D70112962D913C91820F931F978386839A
:1015E000BFEF8B1A9B0AAB0ABB0AE4E0CE0ED11CFC
:1015F000C2CF1A8E198E1B8E1C8E1D8E1E8E18A3A6
:101600000F8FA8014C5F5F4F58A74FA3C8010896E2
:101610009AA789A7EFA1F8A580819181A281B381C2
:101620002B8D3C8D4D8D5E8D281739074A075B0742
:101630000CF40BCF6EE070E08D899E890E946D29BD
:10164000AF8DB8A11B969C938E931A97B12CA12CA9
:10165000D12CC12CF12CE12C24E4E989FA892E9FAC
:10166000C0012F9F900D11249C01225E3B4F388FAB
:101670002F8B88248394912C4D895E89C416D506BE
:1016800054F184E4A989BA898A9F80018B9F100D47
:1016900011240C5E1B4FF80115861486C70133E038
:1016A000880F991F3A95E1F70E948729D801519632
:1016B0009C938E935097892B09F4A6CEC701880F6F
:1016C000991F0E948729F80197878687892B09F43B
:1016D0009BCE80E0A1CED1014D905D906D907D902C
:1016E0001D0177FC91CEEF89F88D008111810A0DE3
:1016F0001B1DD80111969C928E92411451046104D5
:10170000710429F1C2010E948729F801958384831D
:10171000892B09F479CEF801538242828481958124
:1017200097838683918780871386128681E090E075
:1017300045284628472811F490E080E0E80EF91E7D
:10174000FFEFCF1ADF0A2EE0A20EB11C95CF15963F
:101750001C921E921497DFCF2F923F924F925F926E
:101760006F927F928F929F92AF92BF92CF92DF92B1
:10177000EF92FF920F931F93CF93DF93CDB7DEB716
:101780006A970FB6F894DEBF0FBECDBF9E8B8D8BD0
:1017900049015A0184E4829F7001839FF00C112457
:1017A00097012C5E3B4F6901FB0180819181F9011A
:1017B000958B848BD701A65DBB4FFB01349684E0EB
:1017C00001900D928A95E1F7D701A25DBB4FFB0115
:1017D000389684E001900D928A95E1F7D701AE5CCE
:1017E000BB4FFB013C9684E001900D928A95E1F796
:1017F000D701AE5BBB4FFB01709684E001900D9268
:101800008A95E1F78B010C5E1F4FF90186A597A51C
:10181000A0A9B1A918161906DCF5880F991F880F21
:10182000991F0E948729F60193AB82AB892B09F49B
:10183000D3C0312C212C412C512C32019601225D38
:101840003F4F388F2F8BC601C2969A8F898FF4969F
:10185000FC8BEB8BB301A2012FEF421A520A620AF2
:10186000720AEF89F88D80819181A281B381481736
:1018700059076A077B070CF47BC0F60184A995A978
:101880000E948729F60197AB86AB892B09F4A4C087
:10189000F80180819181A281B38124E4289DF00127
:1018A000299DF00D1124EC5EFB4FAC01BD014D7F75
:1018B00021E030E0452B462B472B11F030E020E0B3
:1018C00033A322A324E4289DF001299DF00D1124C7
:1018D000EC5EFB4F0197A109B10921E030E00297CE
:1018E000A105B10510F030E020E035A324A3D70115
:1018F000A65CBB4FF801349684E001900D928A9566
:10190000E1F784E4889DF001899DF00D1124EC5EDF
:10191000FB4F868D978DA0A1B1A1B7FF58C0B095A0
:10192000A095909581959F4FAF4FBF4F82AF93AFDA
:10193000A4AFB5AF168E178E10A211A280E06A96E2
:101940000FB6F894DEBF0FBECDBFDF91CF911F91D0
:101950000F91FF90EF90DF90CF90BF90AF909F904E
:101960008F907F906F905F904F903F902F90089551
:10197000E98DFA8D808191819C01220D331D3A8B76
:10198000298B80E1F801DE01119601900D928A9574
:10199000E1F7005F1F4F49895A89BE016F5F7F4F92
:1019A000ED89FE8984819581A2DAEB89FC898081A9
:1019B0009181E989FA8922813381820F931FEB8912
:1019C000FC8991838083F4E02F0E311C43CF12AE4B
:1019D00013AE14AE15AEB2CFC501B4011DDA81E06D
:1019E000AECFCF92DF92EF92FF92CF93DF93109220
:1019F0009C0424E4269FF001279FF00D1124EC5E47
:101A0000FB4F15A614A630E020E0D12CC12CDF013D
:101A10001A96C1E0D0E0C416D506F4F024E4269F5F
:101A2000F001279FF00D1124EC5EFB4F13A612A6C8
:101A300011AE10AEDF01DE961D921D921D921C921A
:101A4000139782E090E0938B828BDF91CF91FF9090
:101A5000EF90DF90CF900895ED91FC911197E20FF8
:101A6000F31FE280F3801E141F0454F4E480F58019
:101A7000F782E682F186E08613861286D183C083E0
:101A8000EFEFCE1ADE0A225F3F4FC5CF24E4269F38
:101A9000F001279FF00D1124EC5EFB4F138A128A90
:101AA0004ACB24E4269FF001279FF00D1124EC5E21
:101AB000FB4F8289938981309105C8F0853091056B
:101AC00018F0059769F008958FEF9FEFDC01828F82
:101AD000938FA48FB58F85E090E0938B828B0895D0
:101AE0008FEF9FEFDC01828F938FA48FB58F0895C6
:101AF00024E4249FD001259FB00D1124AC5EBB4F80
:101B00002EE0AC01249FC001259F900D11241A9650
:101B1000ED91FC91E80FF91F81E080939C04828590
:101B2000938591878087408551852681378181E023
:101B300090E04217530711F090E080E0918380839A
:101B400008952F923F924F925F926F927F928F9261
:101B50009F92AF92BF92CF92DF92EF92FF920F933C
:101B60001F93CF93DF93CDB7DEB7C055D1090FB622
:101B7000F894DEBF0FBECDBF9EAF8DAF4BA75CA765
:101B80006DA77EA76801790184E4809FF001819FA1
:101B9000F00D1124EC5EFB4F2285338523963FAF79
:101BA0002EAF239782899389029761F486A597A522
:101BB000A0A9B1A9892B8A2B8B2BC9F584E090E0D1
:101BC000938B828B84E48C9DF0018D9DF00D11240C
:101BD000EC5EFB4F828993898230910509F037C210
:101BE00082AD93ADA4ADB5AD22242394312C18164B
:101BF00019061A061B060CF42FC2C05BDF4F0FB686
:101C0000F894DEBF0FBECDBFDF91CF911F910F9132
:101C1000FF90EF90DF90CF90BF90AF909F908F900C
:101C20007F906F905F904F903F902F9008958489A0
:101C300095894DAD5EAD8417950721F606A917A9C4
:101C400018AE1FAA1BAA1CAA1DAA1EAA1F01CF01FB
:101C50008E9627969FAF8EAF2797DF01D296299653
:101C6000BFAFAEAF2997F8962B96FFAFEEAF2B978D
:101C700091012A5D3F4F2D963FAF2EAF2D97A101C9
:101C80004E5D5F4F2F965FAF4EAF2F970A976196CD
:101C90009FAF8EAF61972796EEADFFAD27978081FE
:101CA0009181A281B3812BA93CA94DA95EA92817D6
:101CB00039074A075B0744F081E090E0D101D996EB
:101CC0009C938E93D8977ECF2996AEADBFAD2997C2
:101CD000ED91FC912FA938ADE20FF31F42815381A2
:101CE0005AAF49AF50815FAF818121968FAF219765
:101CF0002B96AEADBFAD2B978D919C91892B21F189
:101D00002D96EEADFFAD2D9780809180A280B3809F
:101D10001AAB09AB5FA72196FFAD2197F8AB29ADB0
:101D20003AAD369527953695279525963FAF2EAF38
:101D300025971CAE1BAE2596AEADBFAD2597EBAD7E
:101D4000FCADEA17FB070CF149AD5AAD6FAD21961A
:101D50007FAD2197C8010E94AC2A89AD9AAD8C7FD6
:101D6000080F191F2BA93CA94DA95EA92F5F3F4F52
:101D70004F4F5F4F2BAB3CAB4DAB5EAB4FA958AD5C
:101D80004C5F5F4F58AF4FAB86CF2F96AEADBFAD18
:101D90002F978D919C91892B71F1EFA5F8A9408027
:101DA000518062807380A3019201C501B4010E9439
:101DB0007124181664F0A9A9BAA92D913D914D91ED
:101DC0005C91C501B4010E94FB251816BCF1A3016A
:101DD0009201C501B4010E94712487FF0CC0E9A9DA
:101DE000FAA92081318142815381C501B4010E9449
:101DF0007124882319F16196AEADBFAD61978D91C5
:101E00009C91892B09F445C0EFA5F8A94080518029
:101E100062807380A3019201C501B4010E94FB2579
:101E200018161CF5A9A9BAA92D913D914D915C9167
:101E3000C501B4010E94712418165CF184E48C9DE4
:101E4000F0018D9DF00D1124EC5EFB4F868D978D7A
:101E5000A0A1B1A1892B8A2B8B2B69F183E090E0A3
:101E6000938B828B81E090E02CC0A3019201C5018D
:101E7000B4010E94712481110CC0E9A9FAA9208142
:101E8000318142815381C501B4010E94712487FDD3
:101E9000D5CF2BAD3CAD2F5F3F4F3CAF2BAF49A90A
:101EA0005AA94C5F5F4F5AAB49AB8FA598A90496CE
:101EB00098AB8FA740CF84E090E0938B828B86AD68
:101EC00097AD93A782A77ECEEBADFCAD80819181CB
:101ED000F401EE0FFF1FEE0FFF1FE80FF91FA081A7
:101EE000B1818C9181110AC0FFEF8F1A9F0AAF0A4E
:101EF000BF0A8DA29EA2AFA2B8A68FC18330A1F364
:101F00000280F381E02D2FA938ADE20FF31F80810D
:101F100091819AAB89AB892B39F34F5F5F4F6F4F3C
:101F20007F4F49875A876B877C879E01235E3F4F8F
:101F3000AE01475D5F4F64E070E0C8010E949F06FC
:101F40008111D0C18D819E81AF81B8850496A11D7C
:101F5000B11D8D839E83AF83B8874D8D5E8DBE018D
:101F60006B5D7F4F8F8D98A10E94AC2A8BA19CA1A5
:101F7000009761F06D8D7E8DA5E2B0E0AC0FBD1FC6
:101F80006A0F7B1F49A15AA10E94AC2A1CAA1BAA56
:101F9000412C512C3201E9A9FAA980819181A281B9
:101FA000B381481659066A067B060CF09DCFE9A955
:101FB000FAA9848195812BA93CA9280F391F38AB38
:101FC0002FA7D90112966D917C919E01235E3F4F00
:101FD000AE01475D5F4FC8010E949F06811182C11B
:101FE000EFA5F8A982819381092E000CAA0BBB0BE7
:101FF0004D815E816F817885840F951FA61FB71F65
:102000008D839E83AF83B887608171814D8D5E8D96
:102010008F8D98A10E94AC2A8BA19CA1009761F0A2
:10202000AFA5B8A96D917C912D8D3E8D620F731F68
:1020300049A15AA10E94AC2ABFEF4B1A5B0A6B0A56
:102040007B0AEBA9FCA93496FCABEBABA4CF312CFB
:10205000212C049709F0D1CD8EE0EDADFEAD8E9F21
:1020600080018F9F100D112423962EAD3FAD239735
:10207000020F131FD80112964D915C9113974115D1
:10208000510509F4BACD16968D919C919AA789A70E
:1020900080E1FE013196DF011D928A95E9F7C98A38
:1020A000DA8AEB8AFC8A2114310409F458C084E4EA
:1020B0008C9DF0018D9DF00D1124EC5EFB4FDF0136
:1020C000DE968D909D90AD90BC9082AD93ADA4AD09
:1020D000B5AD88169906AA06BB0609F040C0F801FE
:1020E000848195810084F185E02D349624E0DE0121
:1020F000559601900D922A95E1F72D893E89285F2A
:102100003F4F3E8B2D8BD80118966D917C9119977E
:10211000260F371F19963C932E93189718962D91DA
:102120003C911997480F591F241B350B37FD06C0EA
:10213000820F931F19969C938E93189784E48C9D1D
:10214000F0018D9DF00D1124EE5AFB4FB1E08B1A7A
:102150009108A108B10880829182A282B3829E0177
:102160002B5E3F4FAE01475D5F4F64E170E0C801F9
:102170000E949F068111B6C08CE090E0A0E0B0E024
:102180008D839E83AF83B8879E01235E3F4FAE0150
:10219000475D5F4F64E070E0C8010E949F068111B7
:1021A000A1C080E190E0A0E0B0E08D839E83AF838A
:1021B000B8874D8D5E8DBE01655D7F4F8F8D98A177
:1021C0000E94AC2A8BA19CA1009761F06D8D7E8D41
:1021D000EBE2F0E0EC0FFD1F6E0F7F1F49A15AA14B
:1021E0000E94AC2A1DA21EA21FA218A62DAD3EADB4
:1021F000220F331F38AF2FAB24E42C9DC0012D9D3F
:10220000900D11248C5E9B4FAC014C5F5F4F5AAF19
:1022100049AFDC011896BCAFABAF8DA09EA0AFA0BC
:10222000B8A449855A856B857C85E9ADFAAD808176
:102230009181A281B38188169906AA06BB060CF487
:1022400043CE452B462B472B09F4D7CC8AE190E0AF
:10225000A0E0B0E089839A83AB83BC832DAD3EAD13
:10226000C901330FAA0BBB0B8D879E87AF87B88B35
:102270004D895E89BE016F5F7F4F8F89988D0E9467
:10228000AC2A8B8D9C8D009761F06D897E8941E031
:1022900050E04C0F5D1F640F751F498D5A8D0E94D1
:1022A000AC2A89A59AA5D80117969C938E93169768
:1022B00011961C921E92232809F49FCC84E48C9DD5
:1022C000F0018D9DF00D1124EE5AFB4F808191811C
:1022D000A281B3810196A11DB11D80839183A28348
:1022E000B3838BCC232809F088CC84E48C9DF00147
:1022F0008D9DF00D1124EC5EFB4F81E090E095A7E1
:1023000084A785E090E0938B828B77CCCF92DF928D
:10231000EF92FF920F931F9324E4269FF001279FD3
:10232000F00D1124EC5EFB4F228933892115310514
:1023300009F452C06B017C0121303105B1F482A552
:1023400093A59C012F5F3F4F33A722A7092E000CB6
:10235000AA0BBB0B028D138D248D358D8017910731
:10236000A207B307C9F5C7013CDB84E48C9DF001EB
:102370008D9DF00D1124EC5EFB4F828993890397AC
:1023800059F582A593A59C012F5F3F4F33A722A744
:10239000092E000CAA0BBB0B468D578D60A171A1B5
:1023A00084179507A607B707BCF086AD97AD93A72E
:1023B00082A784E090E0938B828B82AD93ADA4AD35
:1023C000B5AD181619061A061B0634F4EE5BFF4F5E
:1023D00081E090E0918380831F910F91FF90EF90B7
:1023E000DF90CF90089524E4269FF001279FF00D01
:1023F0001124EC5EFB4F828993890497B1F482A586
:1024000093A5019693A782A7092E000CAA0BBB0BDC
:1024100046895789608D718D84179507A607B70780
:1024200021F485E090E0938B828B08952F923F9268
:102430004F925F926F927F928F929F92AF92BF92D4
:10244000CF92DF92EF92FF920F931F93CF93DF9380
:10245000CDB7DEB72E970FB6F894DEBF0FBECDBF57
:10246000DC0149835A836B837C83290184E4849F44
:10247000F001859FF00D1124EC5EFB4F228833881C
:10248000C1010497029708F0D5C011961C921E92C4
:1024900013961C921E92129715861486912C812CED
:1024A00090E080E08F019F01205F3F4F38872F83AE
:1024B0003F013CE0630E711CBF01625F7F4F7A8772
:1024C00069873A96FC87EB87EF81F8852081318117
:1024D000F30140815181E985FA85A080B18084159E
:1024E00095050CF445C011965C934E9313963C935E
:1024F0002E9312971596BC92AE921497452BF9F431
:10250000F5E02F163104D9F410929C04F801828D65
:10251000938DA48DB58DAE014F5F5F4F64E070E089
:102520008F3F9F4FAF4FBF4F09F079C080E290E0DF
:10253000D5D469817A818B819C81A201A7DA2E96FC
:102540000FB6F894DEBF0FBECDBFDF91CF911F91C4
:102550000F91FF90EF90DF90CF90BF90AF909F9042
:102560008F907F906F905F904F903F902F90089545
:10257000EB85FC8560817181FB01E80DF91DFE870B
:10258000ED8760817181672B89F5E084F184628138
:1025900073817E836D83668177816A01E3E0CC0C71
:1025A000DD1CEA95E1F72C0D3D1D440F551F4A0D2A
:1025B0005B1DFA0191838083F301408151814F5F5C
:1025C0005F4F51834083F901F382E282ED85FE85FE
:1025D00073876287E616F70670F46E197F09F901B2
:1025E0007183608315821482178216820196FEE041
:1025F0008F0E911C69CFED85FE85C480D5804D81FD
:102600005E814C0D5D1D4E195F09F90151834083B8
:102610006C197D0975836483D782C682E7CF8FE109
:1026200090E05CD4F80113A612A681E090E0938BB1
:10263000828B85CF1586148611961C921E92139656
:102640001C921E9212977BCFEF92FF920F931F93D3
:10265000CF93DF937C018B01EA011ED581111BC052
:102660008091F8019091F9010497F9F4DF91CF91ED
:102670001F910F91FF90EF90089528ED38EB45E002
:1026800050E060E070E0CB01BDD7AE01B801C701FA
:10269000C7D7C80190D780919D0490919E04892B43
:1026A000F9F68881882349F3DBCF83E090E09093AB
:1026B000F9018093F801DACFCF93DF932091F801ED
:1026C0003091F9012430310531F0EB01A9D7CE0169
:1026D000DF91CF9170C7DF91CF9108950C940C1FBB
:1026E0000C94011F0C94EF1E76C70C94931E089552
:1026F00070E060E090E080E0AAC40895AF92BF92DD
:10270000CF92DF92EF92FF920F931F93CF93DF93BD
:1027100000D0CDB7DEB75C018B0169017A0190E092
:1027200080E0C114D104E104F10469F40F900F902A
:10273000DF91CF911F910F91FF90EF90DF90CF909D
:10274000BF90AF9008959C2D8D2DC114D10421E030
:10275000E206F10410F09FEF8FEF9E012F5F3F4FD5
:10276000492F582FB801C5010E94981F8F3F980725
:10277000E9F229813A81C21AD30AE108F108020F6D
:10278000131FCFCF40E855E260E070E090E080E0BA
:1027900000C026E084ED94E00C940C281F920F9268
:1027A0000FB60F9211242F933F934F935F936F9324
:1027B0007F938F939F93AF93BF93EF93FF938EEF8E
:1027C0009FEF90938500809384000E94D21FFF9119
:1027D000EF91BF91AF919F918F917F916F915F9199
:1027E0004F913F912F910F900FBE0F901F90189512
:1027F0008EEF9FEF9093850080938400AFE6B0E06A
:102800008C918E7F8C93E0E8F0E080818C7F8083D8
:10281000E1E8F0E08081877E808380818260808330
:1028200080818A7F80838C9181608C93089581E080
:1028300008958F929F92AF92BF92CF92DF92EF92C4
:10284000FF920F931F93CF93DF935C017B018A016B
:10285000C1E0D0E0CE15DF05CCF081E0F50180834A
:10286000B801C7010E94361FF5019283818390E071
:1028700080E0DF91CF911F910F91FF90EF90DF905B
:10288000CF90BF90AF909F908F9008956E018FEF83
:10289000C81AD80AFE01EE0FFF1FE00FF11F80805B
:1028A00091808114910469F06DED72E0C4010E9481
:1028B000BC2A892B41F4CC0FDD1FC00FD11F198218
:1028C0001882E601C7CF60EE72E0C4010E94BC2A04
:1028D000892BB9F7EC14FD04A1F36E01E2E0CE0EF2
:1028E000D11CCC0FDD1FC00FD11F198218821B8293
:1028F0001A82E7CF8FE994E0089580E008950F935E
:102900001F93CF93DF938B01BA01E90119821882DB
:102910009801012E000C440B550BFC018181928122
:10292000EDDE019641F01983088380E0DF91CF91BD
:102930001F910F91089581E0F9CF0F931F93CF93CB
:10294000DF9300D0CDB7DEB7FB018A01B9019E014C
:102950002F5F3F4FAF01FC01818192810E944D1F8B
:10296000019669F089819A81F8019183808380E0E2
:102970000F900F90DF91CF911F910F91089581E0FB
:10298000F7CFFC01808108950895089581E0FB014F
:10299000808380E0089508951092C7040895FC0193
:1029A000818192810C942E1FCF93DF93CDB7DEB738
:1029B0002A970FB6F894DEBF0FBECDBFB0E0A0E0FF
:1029C00089839A83AB83BC83CB01770FAA0BBB0BA4
:1029D0008D839E83AF83B8879E01275F3F4FAE01F3
:1029E0004F5F5F4F68E070E08091B6049091B7044C
:1029F00086DF811110C081E029853A8528303105B4
:102A000009F480E02A960FB6F894DEBF0FBECDBF62
:102A1000DF91CF91089581E0F5CF0F931F93CF936E
:102A2000DF9300D0CDB7DEB78B019E012F5F3F4F04
:102A3000AC018091B6049091B70461DF81110EC0A2
:102A400081E029813A812017310709F480E00F9055
:102A50000F90DF91CF911F910F91089581E0F7CFF3
:102A6000CF93DF93EC011092BA041092B904109244
:102A7000C6041092C504AC0160E070E0CB0106D83A
:102A8000AE0161E070E080E090E000D88091B60493
:102A90009091B704DF91CF917ECF4F925F926F926A
:102AA0007F928F929F92AF92BF92CF92DF92EF92DE
:102AB000FF920F931F93CF93DF9300D0CDB7DEB774
:102AC0008C017C0197FF03C087E0E80EF11C23E036
:102AD000F594E7942A95E1F7C80168E070E00E9458
:102AE0001E296C010E5F1F4F8091B4049091B504B4
:102AF00080179107D4F48091B2049091B3040097A9
:102B000031F00E94232A1092B5041092B404C80137
:102B10000E9487299093B3048093B204892B09F40F
:102B200082C01093B5040093B40410E000E047C1E4
:102B3000412C512C3201B12CA12C950125543B4F35
:102B4000AE014F5F5F4F61E070E08091B6049091FD
:102B5000B704F3DE811149C0EFEF4E1A5E0A6E0A28
:102B60007E0AF0E94F16FFE55F06F1E06F0671049B
:102B700044F06091C5047091C6048DEE90E014DFBE
:102B8000D7CF89819A81A80EB91E8AE0A816B10410
:102B900009F043C049E050E070E060E08BEB94E066
:102BA0000E94C41F6091C5047091C604882391F1EE
:102BB0008091C30490E08617970781F4BC018EEEE4
:102BC00090E0F2DE8091C5049091C60401969927A9
:102BD0009093C6048093C5040F5F1F4F0E151F0509
:102BE0000CF4A6CFCD2809F07CC090E080E00F90D7
:102BF0000F90DF91CF911F910F91FF90EF90DF9099
:102C0000CF90BF90AF909F908F907F906F905F908C
:102C10004F9008958FEE90E0B2CFEAE0AE16B10487
:102C20000CF48BCFDBCF10E000E0D8CF0A301105D9
:102C300031F549E050E070E060E08BEB94E00E94F9
:102C4000C41F6091C5047091C6048823A9F08091C7
:102C5000C30490E08617970741F6BC018EEE90E022
:102C6000A3DE8091C5049091C604019699279093A4
:102C7000C6048093C504B9CF8FEE90E02BC00A3014
:102C800011050CF0B2CF980125543B4FAE014F5FB8
:102C90005F4F61E070E08091B6049091B7044DDE23
:102CA0008111A3CF89819A81080F191FFFEFCF1AD5
:102CB000DF0AEF0AFF0A80E9C8168FE5D80681E02F
:102CC000E806F1040CF4B2CF6091C5047091C6041B
:102CD0008DEE90E069DE10E000E0C12CD12C760191
:102CE000D2CFC12CD12C760110E000E0CCCF412C0A
:102CF000512C3201B12CA12C480193E0880C991C75
:102D00009A95E1F72091B2043091B304C501880D82
:102D1000991D280F391FAE014F5F5F4F61E070E0D2
:102D20008091B6049091B70408DE81115ECFEFEF79
:102D30004E1A5E0A6E0A7E0A6091C5047091C6043E
:102D40008DEE90E0F0E94F16FFE55F06F1E06F06CB
:102D500071040CF043C089819A81A80EB91E8AE0E3
:102D6000A816B10409F041C049E050E0B4018091D7
:102D7000B2049091B3040E94C41F6091C504709185
:102D8000C604882349F18091B2049091B304880E5F
:102D9000991EF401808590E08617970781F4BC01A5
:102DA0008EEE90E001DE8091C5049091C6040196FC
:102DB00099279093C6048093C5040F5F1F4F0E158B
:102DC0001F050CF494CFC114D10409F081C0809187
:102DD000B2049091B3040BCF8FEE90E0E5DD412C6F
:102DE000512C3201B12CA12C8DCFFAE0AF16B104D9
:102DF0000CF488CFE4CF8FEE90E0D6DDF12CE12CFF
:102E0000812C912C5401970125543B4FAE014F5F0B
:102E10005F4F61E070E08091B6049091B7048DDD62
:102E20008111E3CE8FEF881A980AA80AB80A609138
:102E3000C5047091C6048DEE90E0E0E98E16EFE5D2
:102E40009E06E1E0AE06B104C4F689819A81E80EDF
:102E5000F91EFAE0EF16F104A9F549E050E070E040
:102E600060E08BEB94E00E94C41F6091C5047091F8
:102E7000C604882309F4BFCF8091C30490E086176D
:102E8000970709F0A4CFBC018EEE90E08DDD83E0C2
:102E9000000F111F8A95E1F78091B2049091B3045D
:102EA000A6016BEB74E0800F911F0E94AC2A809109
:102EB000C5049091C604019699279093C604809307
:102EC000C50485CF8AE0E816F1040CF49CCF7FCFCF
:102ED000812C912C5401F12CE12C95CFCF92DF92D3
:102EE000EF92FF920F931F93CF93DF931F92CDB773
:102EF000DEB76C017B018A01452B39F0AB0170E034
:102F000060E0C8010E94C01F8983B701C6014CDD83
:102F100081110DC00115110551F0B701C8017DDD0A
:102F2000811105C061E070E0CE01019676DD0F9061
:102F3000DF91CF911F910F91FF90EF90DF90CF9095
:102F40000895CF92DF92EF92FF92CF93DF93CDB7A8
:102F5000DEB728970FB6F894DEBF0FBECDBF6B016A
:102F6000F12CE12CC982DA82EB82FC822D833E8334
:102F70004F835887AE014F5F5F4F68E070E0AEDF70
:102F800028960FB6F894DEBF0FBECDBFDF91CF916C
:102F9000FF90EF90DF90CF9008958F929F92AF9225
:102FA000BF92CF92DF92EF92FF920F931F93CF9336
:102FB000DF937C01EB01CA0169016FDD0097B1F479
:102FC0002FEF3FEFA90161E070E0C701BADFC1E078
:102FD0008C2FDF91CF911F910F91FF90EF90DF9099
:102FE000CF90BF90AF909F908F900895FC018190FB
:102FF0009190A190B190BF01FCE1EF16F10479F43A
:10300000A5019401CE010E94AC0BC82FA50194012B
:10301000882369F061E070E0C70193DFD9CF9501A3
:103020008401AB01B601CE010E94AF09EECF70E082
:1030300060E0C701DF91CF911F910F91FF90EF905A
:10304000DF90CF90BF90AF909F908F907ACF0F93EB
:103050001F93CF93DF93EC018B014CDC9093B7046B
:103060008093B6040097A9F0A801BE01E2DBEC0151
:10307000892B49F08091B6049091B70485DC1092B9
:10308000B7041092B604CE01DF91CF911F910F913A
:103090000895CCEED2E0EECF8091B6049091B704C3
:1030A00070CC2F923F924F925F926F927F928F924D
:1030B0009F92AF92BF92CF92DF92EF92FF920F93C7
:1030C0001F93CF93DF93CDB7DEB769970FB6F89410
:1030D000DEBF0FBECDBF2091BA042223F1F05B8B7F
:1030E0004A8B6E877F87888B998B9A01AB01BC01D5
:1030F000CE0101967C019AD910E048E0242E312CB3
:10310000E88EF98E89819A81181619060CF450C23E
:10311000112319F08A899B89A3DC69960FB6F8946C
:10312000DEBF0FBECDBFDF91CF911F910F91FF90FA
:10313000EF90DF90CF90BF90AF909F908F907F9057
:103140006F905F904F903F902F900895EB81FC819E
:103150008C859D8533E0880F991F3A95E1F7E80F3C
:10316000F91F808191819093B1048093B0042481F0
:103170003581428153815093AF044093AE04468120
:1031800057815093AD044093AC04820F931F9C0170
:10319000990F440B550B2C8B3D8B4E8B5F8B812CE9
:1031A000912C54018C899D89AE89BF898816990616
:1031B000AA06BB0638F18C859D85880F991FED8185
:1031C000FE81E80FF91F4E855F85688979898081C6
:1031D00091810E94780DAC85BD851196BD87AC8725
:1031E00089819A81EC85FD85E817F9070CF4AECF4B
:1031F0002A893B894E855F8568897989888D998D73
:1032000015D980CF1F826091B0047091B104CB01B9
:10321000072E000CAA0BBB0B84017501640134E07E
:10322000C30ED11CE11CF11CC816D906EA06FB0628
:1032300008F0B3C02091AE043091AF04A4014C5FFC
:103240005F4F240F351FF901C080D12CF12CE12CE8
:1032500024013501F5E04F0E511C611C711C48160C
:1032600059066A067B0608F0A3C02091AE0430918F
:10327000AF04F8013596E20FF31F2081D22A240112
:10328000350126E0420E511C611C711C481659067E
:103290006A067B0608F097C02091AE043091AF0417
:1032A000F8013696E20FF31F2081E22A240135014E
:1032B00037E0430E511C611C711C481659066A0602
:1032C0007B0608F08BC02091AE043091AF04F8016A
:1032D0003796E20FF31F208126013701722A75010C
:1032E000640148E0C40ED11CE11CF11C8C159D0545
:1032F000AE05BF0508F41DC188169906AA06BB06CF
:1033000008F077C08091AE049091AF04800F911FB8
:1033100068E070E082DBE091B004F091B1049F01BD
:103320000F2E000C440B550BD301C2018C0D9D1DBB
:10333000AE1DBF1D281739074A075B0708F478C080
:10334000C216D306E406F50608F05DC08091AE040F
:103350009091AF049801285F3F4F820F931FB201F5
:103360005CDB8091B0049091B104AC01092E000C9B
:10337000660B770BC416D506E606F70608F04DC0B7
:10338000085F1F4F8091AE049091AF04800F911F92
:10339000A20170E060E0F4D5A7C044E050E0461B15
:1033A000570B480D591D2091AC043091AD0449CF05
:1033B000E5E0F0E0E61BF70BE00FF11F2091AC0415
:1033C0003091AD0458CFE6E0F0E0E61BF70BE00FDC
:1033D000F11F2091AC043091AD0464CFE7E0F0E040
:1033E000E61BF70BE00FF11F2091AC043091AD0408
:1033F00070CF9801261B370B8091AC049091AD04DF
:10340000820F931F85CF91012E1B3F0B200F311F81
:103410008091AC049091AD04A0CFD101A81BB90B51
:10342000CD01080F191F8091AC049091AD04AECF6F
:10343000BF0168507109601B710BC216D306E40608
:10344000F50608F062C08091AE049091AF04980137
:10345000285F3F4F820F931FE0DA8091B004909174
:10346000B104B101681B790B600F711F640D751DEC
:103470008091AC049091AD04D0DA8091B004909129
:10348000B104AC0148505109FA01E01BF10BAC0149
:10349000092E000C660B770BC416D506E606F70658
:1034A00008F03DC08091AE049091AF049801285F70
:1034B0003F4F820F931FAF0170E060E061D58F83B3
:1034C0002091B0043091B104F101E21BF30B9F0194
:1034D000200F311F240D351D50E040E0682F8091F2
:1034E000AC049091AD0438D58F8361E070E0CE01DB
:1034F000079693DA182F38E0430E511C611C711C9B
:10350000840C951CA61CB71C4DCE91012E1B3F0BA5
:10351000200F311F8091AC049091AD049BCF91019D
:10352000281B390B200F311F8091AC049091AD0402
:10353000C0CF88169906AA06BB0668F5601B710BFA
:103540008091AE049091AF04800F911F66DA809154
:10355000B0049091B104B101681B790B600F711F29
:10356000640D751D8091AC049091AD0456DA809184
:10357000B0049091B104AC01092E000C660B770BDE
:10358000C416D506E606F70608F4FACE9101281B04
:10359000390BC90146CFC801861B970B2091AC049B
:1035A0003091AD04B201685F7F4F820F931FDECF71
:1035B0001D861C8615CECF93DF93EC01AC0160E035
:1035C00070E0CB016EDDAE0161E070E080E090E084
:1035D000DF91CF9166CDCF938091B6049091B704DF
:1035E0008CD9C82F81110BC060E070E0CB010E9424
:1035F0006F0861E070E080E090E00E946F088C2F1F
:10360000CF9108950F931F9389019A01AB01BC01DB
:103610008091B6049091B704B8D91F910F91089585
:103620004F925F926F927F928F929F92AF92BF92D2
:10363000CF92DF92EF92FF920F931F93CF93DF937E
:10364000CDB7DEB763970FB6F894DEBF0FBECDBF20
:103650006C018B015A018091BA04882309F43DC0A2
:103660008091BA04882309F442C08091B9041A8277
:103670001982882309F4BEC0F0E94F2EFFE55F2EC2
:1036800066246394712CF12CE12C97012E553B4F4D
:10369000AE014F5F5F4F61E070E08091B6049091A2
:1036A000B7044BD9982E811169C089819A81E80E9F
:1036B000F91EE114F10409F461C081E0481A5108CF
:1036C0006108710859F56091C5047091C6048DEECA
:1036D00090E06AD91A82198251C06AEB74E0809135
:1036E000B6049091B70452D9882309F4B9CF6396F0
:1036F0000FB6F894DEBF0FBECDBFDF91CF911F9103
:103700000F91FF90EF90DF90CF90BF90AF909F9080
:103710008F907F906F905F904F900895AAE0EA1687
:10372000F10409F061C049E050E070E060E082EA35
:1037300094E02AD46091C5047091C604882309F4EA
:1037400050C08091AA0490E08617970719F6BC0133
:103750008EEE90E029D988E0E2EAF4E0DE011996E5
:1037600001900D928A95E1F78091C5049091C6046D
:10377000019699279093C6048093C50481E029811E
:103780003A81121613060CF080E09110C8C288230B
:1037900009F4ADCF8091B904811104C019861A864D
:1037A0001B861C8689859A85AB85BC8580319105F1
:1037B000A105B10508F09BCFFC01EF51F44E0C942C
:1037C0005329611C201E8F1E771B651D981D511CDF
:1037D000591C351C741E631E701E771B771B771BCC
:1037E000201C8FEE90E075CFBAE0EB16F1040CF4DC
:1037F0004CCFC4CFF12CE12CE8E06E2E712C29E0E7
:1038000030E02C0F3D1F2E0D3F1DAE014F5F5F4F6F
:10381000B3016E197F098091B6049091B7048DD8D9
:10382000982E29813A81811109C0E20EF31EE1141C
:10383000F10421F0E8E0EE16F1040CF381E0A1CFF1
:10384000D6011696ED91FC9180819181A281B38180
:1038500089839A83AB83BC83AE014F5F5F4F64E083
:1038600070E085E190E03ADB42CF8D859E8515D9E9
:103870002FEF3FEFA90161E070E0009771F0FC01CC
:10388000C080D180E280F380A801C701B6010E9408
:10389000F10CA701960170E060E08DE190E051DB52
:1038A00026CF4D855E859801B6018BE190E075DBF2
:1038B0001ECF4D855E852FEF3FEFB6018CE190E086
:1038C000F6CFD6011496ED91FC9100811181F8019B
:1038D00082809380A080B18070E1472E512C612CB2
:1038E000712C49825A826B827C8288E090E0A0E051
:1038F000B0E08D839E83AF83B8879E012F5E3F4FDC
:10390000AE014F5F5F4F68E070E08091B604909128
:10391000B7040E947F148823D9F010E000E0C801AA
:1039200063960FB6F894DEBF0FBECDBFDF91CF9187
:103930001F910F91FF90EF90DF90CF90BF90AF90CD
:103940009F908F907F906F905F904F900C94232A60
:1039500089899A89089709F7D801ED90FC90B8E019
:10396000EB0EF11CEE0CFF1CEE0CFF1CC7010E94BD
:1039700087298C01892B89F249825A826B827C8249
:10398000C7010F2C000CAA0BBB0B8D839E83AF834A
:10399000B8879E012F5E3F4FAE014F5F5F4F68E0DB
:1039A00070E08091B6049091B7040E947F14811159
:1039B000B6CF89899A89089709F0B1CFD6011296B6
:1039C000ED91FC914081518162817381D8014D93C9
:1039D0005D936D937C9313974481558166817781C4
:1039E00014964D935D936D937C9317974085518505
:1039F0006285738518964D935D936D937C931B97A9
:103A000084859585A685B785F80184879587A687DF
:103A1000B787108A118A128A138A84E090E0A0E0A6
:103A2000B0E0848B958BA68BB78B8091F801909139
:103A3000F901B0E0A0E0808F918FA28FB38FC50114
:103A40000B2C000CAA0BBB0B848F958FA68FB78F06
:103A5000F401D801909690E080E08A159B055CF116
:103A60009E012F5E3F4FA801B7018091B60490914F
:103A7000B7040E947F14811152CF89899A89E81670
:103A8000F90609F04CCFA70170E060E0C80178D2D8
:103A90008B8B9E012F5E3F4FAE014D5E5F4F61E00D
:103AA00070E08091B6049091B7040E947F1481E089
:103AB0008093B90434CF4191519170E060E04D930F
:103AC0005D936D937D930196C8CF8D859E85AF855F
:103AD000B8890097A105B10521F481E08093B8046D
:103AE00006CE0E944D15009781F481E090E0A0E0A1
:103AF000B0E089839A83AB83BC83AE014F5F5F4F95
:103B000064E070E082E190E0AECEBC01C6010E94AC
:103B1000C80719821A821B821C82AE014F5F5F4F59
:103B200064E070E082E190E0D9D98823B1F2DFCD82
:103B3000D6011496ED91FC910190F081E02DE08486
:103B4000F1848FEF8983E114F10409F472C0D70185
:103B50006D907C90C280D38070E060E090E080E067
:103B60008615970594F083E190E00E94D41410E04C
:103B700000E08111BCCD061517055CF161E070E035
:103B8000CE0101960E940D15B2CD9C0143E0220F9B
:103B9000331F4A95E1F7F701A281B381A20FB31F4A
:103BA0001296ED91FC911397EE0FFF1FEC0DFD1D8A
:103BB0000190F081E02D16964D915C91E49F90016B
:103BC000E59F300DF49F300D1124620F731F019695
:103BD000C7CFD7011296ED91FC91C80123E0880F61
:103BE000991F2A95E1F7E80FF91FA080B180A28103
:103BF000B381AA0FBB1FAC0DBD1D2D913C918681D9
:103C00009781289F4001299F900C389F900C112488
:103C1000B401C5010E940D15582E940150E040E0FA
:103C20006981C50199D18983511061CD0F5F1F4F03
:103C3000A2CF70E060E083E190E00E94D41457CD01
:103C400050E040E070E060E081E190E047D9811110
:103C50004ECD60E070E0CB010E94960980919C04FB
:103C6000882329F0A80160E070E0CB011ADAA801EE
:103C700060E070E0CB010E949B0861E070E080E0B2
:103C800090E00E94960980919C04882331F0A8015D
:103C900061E070E080E090E004DAA80161E070E0AB
:103CA00080E090E00E949B081092BA041092B90440
:103CB0001092C6041092C5048091B6049091B70486
:103CC0000E94CC1414CD81E090E090939E048093E8
:103CD0009D0450E040E070E060E086E190E0C3CDFC
:103CE00081E0F501808303CD8D859E850E944D1571
:103CF0002FEF3FEFA90161E070E0009769F0DC0170
:103D0000CD90DD90ED90FC90C701B6010E94510D61
:103D1000A701960170E060E08EE190E0C0CDC8019F
:103D20000E943015E4CCCF92DF92EF92FF92CF93B6
:103D3000DF93EC01C12CD12C7601C701B6010E94A2
:103D40009609AE01C701B601ACD9AE01C701B601F3
:103D50000E949B088091B2049091B304009731F0C7
:103D60000E94232A1092B3041092B204CA94CD2860
:103D7000CE28CF2879F58091B904F12C882351F011
:103D800050E040E070E060E084E190E0A7D8F82ED9
:103D90001092B9048091BA04882341F01092BA04B9
:103DA00081E090E09093F9018093F8018091B6044E
:103DB0009091B7040E94CF148091B6049091B704FB
:103DC0000E94C4148F2DDF91CF91FF90EF90DF9070
:103DD000CF900895C12CD12C7601C394AECFCF9350
:103DE000DF93EC01AC0160E070E0CB010E94861132
:103DF000AE0161E070E080E090E0DF91CF910C9443
:103E0000861160E070E0CB010E94F31161E070E088
:103E100080E090E00C94F311CF92DF92EF92FF924A
:103E20000F931F93CF93DF93EC016A017B0100E0B6
:103E300010E098010E94A10D01E010E020E030E0C8
:103E4000B701A601CE010E94A10DDF91CF911F9174
:103E50000F91FF90EF90DF90CF90089568EE73E0A0
:103E600080E090E09ED790E080E0089526E040E07A
:103E700050E16EE070E084ED94E00E940C2884ED47
:103E800094E00E944227892B29F084ED94E00E945F
:103E90005C27F5CF90E080E00895CF92DF92EF921B
:103EA000FF920F931F93CF93DF936B017A01E90188
:103EB0001982188284ED94E0E5D7892B71F186018F
:103EC000CC24C39485E6D82E8091C704811111C0FB
:103ED00084ED94E0F1D785369105B1F7C092C7041F
:103EE000F801D1928F018881998101969983888305
:103EF000EBCF888199818E159F0578F484ED94E04D
:103F0000DBD78F3F9807A9F3F80181938F01888150
:103F10009981019699838883ECCF90E080E0DF91CE
:103F2000CF911F910F91FF90EF90DF90CF90089568
:103F30000F931F93CF93DF93EA01890184ED94E0FF
:103F40000E94F028F801D183C08390E080E0DF91E7
:103F5000CF911F910F910895DC01A40FB51F420F5F
:103F6000531F9D01281B390B2417350710F0862F8E
:103F70000895ED91E627F0E0E859FF4F6491F1CF05
:103F80009A01AB016FEFE8CFCF93FC01E60FF71F6B
:103F9000E40FF51FC081F4DF91E0C81390E0892F92
:103FA000CF9108958091C80491E0980F9093C80430
:103FB000882349F021E030E03093CA042093C904FB
:103FC0008093C804089578940E94DE00F89480914C
:103FD000C80481508093C8040C947013DF92EF9250
:103FE000FF920F931F93CF93DF931F92CDB7DEB74E
:103FF0001092400610923F060AD70E94C213009109
:10400000510210915202F8011182108270E060E0BA
:1040100090E080E00E9478130E94AB05F8947894B9
:10402000C80189559F4F0E94771382E090E00E945B
:1040300074131982AE014F5F5F4F62E070E0F801C8
:10404000828193810E9424138981882329F081E051
:10405000F801E355FF4F80830E947D13F8940E947E
:10406000F813F80180819181892B29F481E0E355CF
:10407000FF4F9081911180E080933F06789478946F
:104080007801FDEAEF0EF11CDD24D39480913F0608
:10409000811112C00E949E0682E090E00E9475137A
:1040A000F89490E080E00F90DF91CF911F910F91F5
:1040B000FF90EF90DF9008951982AE014F5F5F4F40
:1040C00062E070E0F801828193810E945C13898133
:1040D000882311F0F701D082F80180819181892B2A
:1040E00091F481E0F7019081911101C080E080930B
:1040F00040069091400681E0911180E080933F0658
:104100000E941714C3CF81E0F2CFFC011086118604
:10411000128613861486158616861786118E108EC3
:1041200012A213A210A211A2168E178E148A158A3B
:10413000168A178A14A215A2148E158E108A118A57
:10414000128A138A128E138E08952F923F924F92E5
:104150005F926F927F928F929F92AF92BF92CF9217
:10416000DF92EF92FF920F931F93CF93DF93CDB720
:10417000DEB72E970FB6F894DEBF0FBECDBF5C0141
:10418000FB015C874B873E832D831E870D87D801FB
:1041900058962D913C912F3F320739F02F5F3F4FBA
:1041A000D80159963C932E935897AD85BE8592962B
:1041B0008C91929781114BC081E092968C9392974B
:1041C00082E093968C93939759961C921E925897DF
:1041D00040E050E060E87FE3408351836283738373
:1041E000ED85FE8580A1811162C081E080A383E01E
:1041F00081A3148215821682178280E090E0A0EAE3
:10420000B0E480839183A283B383ED81FE81248116
:104210003581468157816091FA017091FB0180914F
:10422000FC019091FD01EBD46B017C01AD85BE8555
:104230005E968C915E978111A2C081E05E968C9310
:104240005E9782E05F968C93312C212CB7C0AD85B0
:10425000BE8558968D919C91599793962C912130BB
:1042600061F4108211821282138280369A4E08F411
:10427000B7CF82E0AD85BE85A4CF40E050E060E8D6
:104280007FE340835183628373830A9708F4A8CF46
:1042900081E0AD85BE8593968C93939759961C9239
:1042A0001E925897108211821282138299CFAD8587
:1042B000BE8591969C919197923009F4A6CF933048
:1042C000D1F1913009F03DC0CD90DD90ED90FC90A2
:1042D00020E030E0A901F501608171818281938144
:1042E00000D320E030E040E85FE381111AC0AD85E3
:1042F000BE8514966D917D918D919C9117977AD280
:10430000ED85FE856483758386839783AD81BE8149
:104310001496CD92DD92ED92FC92179784E081A3E2
:1043200074CFC701B60166D2ED85FE8560837183C7
:10433000828393836ACF84E0AD85BE8591968C930A
:1043400064CF20E030E040E85FE3F50160817181F7
:1043500082819381C6D2811102C081E0EDCF20E03D
:1043600030E040E450E4ED85FE856481758186810E
:10437000978141D418160CF048CF82E0DDCFED854F
:10438000FE85878D8130B9F020E030E040E251E4D5
:10439000C701B60130D487FD57CF20E030E048ECAC
:1043A00052E4C701B6019DD287FF4ECF81E0AD85B3
:1043B000BE855F968C9322242394312CED85FE8557
:1043C00084899589A689B7898F3FFFEF9F07AF073B
:1043D000BF0749F00196A11DB11DED85FE85848BB7
:1043E000958BA68BB78BAD85BE8594968C91949753
:1043F000811110C081E094968C93949782E09596F9
:104400008C939597FD01148A158A168A178A01E004
:1044100010E063C0AD85BE8554968D909D90AD90A3
:10442000BC90579795968C91813081F5209106022A
:10443000309107024091080250910902C701B6016C
:10444000DED39B01AC016091020270910302809166
:10445000040290910502CDD12DEB37E346E855E3F8
:1044600044D22CED34E244E358E2C3D127D2A5D2A2
:1044700086169706A806B90670F182E0ED85FE85DE
:1044800085A3148A158A168A178AC1CF2091FE0146
:104490003091FF014091000250910102C701B60125
:1044A000AED32DEB37E346E855E31FD22CED34E2D3
:1044B00044E358E29ED102D280D286169706A8061F
:1044C000B90608F4A4CF81E0ED85FE8585A3148AA2
:1044D000158A168A178A10E000E0ED85FE85848D26
:1044E000811106C081E0848F858F1A82198229C0CC
:1044F000AD85BE855D968C91813009F015C120E0B7
:1045000030E040E251E4C701B601EBD187FF08C0BB
:1045100020E030E0A901C701B6016DD318164CF0B8
:1045200020E030E048EC52E4C701B60164D318162D
:10453000E4F682E0ED85FE85858F21E030E03A8368
:104540002983AD85BE8518964D905D906D907C90C9
:104550001B97C301B2015FD26F83788789879A87DF
:1045600020911202309113024091140250911502D1
:10457000B8D187FFDEC077FCDCC080900A02909043
:104580000B02A0900C02B0900D0220E030E040E859
:104590005FE360910E0270910F0280911002909182
:1045A000110227D19B01AC016F81788589859A859D
:1045B00022D387FDC2C0ED85FE8510861186128646
:1045C000138629813A81B901330F880B990B23D2C5
:1045D000A501940114D369837A838B839C83ED8531
:1045E000FE8580899189A289B3898F3FFFEF9F075C
:1045F000F1E0AF07B10548F40196A11DB11DED85AD
:10460000FE85808B918BA28BB38BAD85BE855A9630
:104610008C915A9781119DC081E05A968C935A973C
:104620005B968C935B97FD01108A118A128A138A1C
:10463000AD85BE851C964D905D906D907C901F97CA
:10464000C301B201E8D14B015C01209122023091FB
:104650002302409124025091250243D187FFABC031
:1046600077FCA9C0C0901A02D0901B02E0901C02F7
:10467000F0901D0220E030E040E85FE360911E0210
:1046800070911F028091200290912102B2D09B0173
:10469000AC01C501B401AFD287FD91C0ED85FE85A7
:1046A0001486158616861786029DB001039D700D2F
:1046B000129D700D1124072E000C880B990BABD1A5
:1046C00029813A814B815C8195D04B015C01AD81A0
:1046D000BE812D913D914D915C91C701B6018FD264
:1046E0009B01AC01C501B40185D0EB85FC856083DD
:1046F0007183828393832E960FB6F894DEBF0FBE2C
:10470000CDBFDF91CF911F910F91FF90EF90DF9080
:10471000CF90BF90AF909F908F907F906F905F9061
:104720004F903F902F90089581E090E09A83898385
:1047300008CF812C912C540128CFD301C2010196BE
:10474000A11DB11DED85FE8580879187A287B38766
:1047500038CFAD85BE855B968C918130D1F08230AB
:1047600069F020E030E0A901C701B601BAD081119B
:104770005FCF82E0AD85BE855B968C9380E090E054
:10478000A0E8BFE3ED81FE8180839183A283B383A0
:104790004FCFED85FE8580899189A289B3898137C4
:1047A0009141A140B10508F443CF83E0AD85BE85BA
:1047B0005B968C933DCFC12CD12C76015BCFD3017E
:1047C000C2010196A11DB11DED85FE8584879587E7
:1047D000A687B78769CFFB019183808388E0FA01C0
:1047E00011928A95E9F786E2F90111928A95E9F723
:1047F00008955058BB27AA270ED0ACC19DD130F0E8
:10480000A2D120F031F49F3F11F41EF492C10EF4B6
:10481000E095E7FB5FC1E92FAED180F3BA176207DD
:1048200073078407950718F071F49EF5DDC10EF447
:10483000E0950B2EBA2FA02D0B01B90190010C01B0
:10484000CA01A0011124FF27591B99F0593F50F4C8
:10485000503E68F11A16F040A22F232F342F442720
:10486000585FF3CF469537952795A795F040539518
:10487000C9F77EF41F16BA0B620B730B840BBAF0E8
:104880009150A1F0FF0FBB1F661F771F881FC2F753
:104890000EC0BA0F621F731F841F48F48795779567
:1048A0006795B795F7959E3F08F0B3CF9395880F1E
:1048B00008F09927EE0F9795879508957ED180F09F
:1048C0009F3740F491110EF490C160E070E080E8F1
:1048D0009FE3089526F01B16611D711D811D00C107
:1048E0001AC1D4D008F481E008950CD033C12BD183
:1048F00040F022D130F021F45F3F19F0EBC05111AC
:1049000074C117C138D198F39923C9F35523B1F372
:10491000951B550BBB27AA2762177307840738F02E
:104920009F5F5F4F220F331F441FAA1FA9F333D08D
:104930000E2E3AF0E0E830D091505040E695001C41
:10494000CAF729D0FE2F27D0660F771F881FBB1FFD
:10495000261737074807AB07B0E809F0BB0B802DD7
:10496000BF01FF2793585F4F2AF09E3F510568F023
:10497000B1C03BC15F3FECF3983EDCF38695779581
:104980006795B795F7959F5FC9F7880F911D969525
:10499000879597F90895E1E0660F771F881FBB1F81
:1049A000621773078407BA0720F0621B730B840B2E
:1049B000BA0BEE1F88F7E0950895E5D088F09F5771
:1049C00090F0B92F9927B751A0F0D1F0660F771F5B
:1049D000881F991F1AF0BA95C9F712C0B13081F03B
:1049E00003D1B1E0089500C1672F782F8827B85F01
:1049F00039F0B93FCCF3869577956795B395D9F79C
:104A00003EF490958095709561957F4F8F4F9F4FA5
:104A10000895E89409C097FB3EF4909580957095B1
:104A200061957F4F8F4F9F4F9923A9F0F92F96E9FA
:104A3000BB279395F695879577956795B795F1116F
:104A4000F8CFFAF4BB0F11F460FF1BC06F5F7F4F0C
:104A50008F4F9F4F16C0882311F096E911C077231E
:104A600021F09EE8872F762F05C0662371F096E827
:104A7000862F70E060E02AF09A95660F771F881FF6
:104A8000DAF7880F9695879597F90895990F00089A
:104A9000550FAA0BE0E8FEEF16161706E807F90710
:104AA000C0F012161306E407F50798F0621B730BAB
:104AB000840B950B39F40A2661F0232B242B252B2C
:104AC00021F408950A2609F4A140A6958FEF811DCF
:104AD000811D089597F99F6780E870E060E0089570
:104AE000882371F4772321F09850872B762F07C005
:104AF000662311F499270DC09051862B70E060E079
:104B00002AF09A95660F771F881FDAF7880F969517
:104B1000879597F908959F3F31F0915020F487953C
:104B200077956795B795880F911D9695879597F915
:104B300008959FEF80EC089500240A941616170636
:104B400018060906089500240A941216130614067E
:104B500005060895092E0394000C11F4882352F0E1
:104B6000BB0F40F4BF2B11F460FF04C06F5F7F4F99
:104B70008F4F9F4F089557FD9058440F551F59F080
:104B80005F3F71F04795880F97FB991F61F09F3F3A
:104B900079F087950895121613061406551FF2CF63
:104BA0004695F1DF08C0161617061806991FF1CFB3
:104BB00086957105610508940895E5DFA0F0BEE7CC
:104BC000B91788F4BB279F3860F41616B11D672FFC
:104BD000782F8827985FF7CF869577956795B11DD1
:104BE00093959639C8F30895E894BB2766277727ED
:104BF000CB0197F908954ADF08F48FEF08950BD0A1
:104C0000A9CF9ADF28F09FDF18F0952309F062CF33
:104C100090CF1124EACFAFDFA0F3959FD1F3950F8A
:104C200050E0551F629FF001729FBB27F00DB11D30
:104C3000639FAA27F00DB11DAA1F649F6627B00DC0
:104C4000A11D661F829F2227B00DA11D621F739FA9
:104C5000B00DA11D621F839FA00D611D221F749FB7
:104C60003327A00D611D231F849F600D211D822FFE
:104C7000762F6A2F11249F5750408AF0E1F0882345
:104C80004AF0EE0FFF1FBB1F661F771F881F915052
:104C90005040A9F79E3F510570F01CCFA6CF5F3F53
:104CA000ECF3983EDCF3869577956795B795F79585
:104CB000E7959F5FC1F7FE2B880F911D969587950D
:104CC00097F908951F920F920FB60F9211242F9308
:104CD0003F938F939F93AF93BF938091CC04909118
:104CE000CD04A091CE04B091CF043091CB0423E049
:104CF000230F2D3758F50196A11DB11D2093CB042C
:104D00008093CC049093CD04A093CE04B093CF04B1
:104D10008091D0049091D104A091D204B091D30499
:104D20000196A11DB11D8093D0049093D104A0934E
:104D3000D204B093D304BF91AF919F918F913F91D3
:104D40002F910F900FBE0F901F90189526E8230FFC
:104D50000296A11DB11DD2CF3FB7F8948091D00427
:104D60009091D104A091D204B091D30426B5A89B10
:104D700005C02F3F19F00196A11DB11D3FBFBA2FED
:104D8000A92F982F8827BC01CD01620F711D811DAD
:104D9000911D42E0660F771F881F991F4A95D1F732
:104DA00008958F929F92AF92BF92CF92DF92EF922F
:104DB000FF926B017C01D0DF4B015C01C114D10477
:104DC000E104F104D9F039D2C7DF681979098A09F9
:104DD0009B09683E73408105910580F321E0C21A6A
:104DE000D108E108F10888EE880E83E0981EA11C26
:104DF000B11CC114D104E104F10431F7FF90EF902C
:104E0000DF90CF90BF90AF909F908F90089578944F
:104E100084B5826084BD84B5816084BD85B58260BF
:104E200085BD85B5816085BDEEE6F0E0808181605D
:104E30008083E1E8F0E0108280818260808380815D
:104E400081608083E0E8F0E0808181608083E1EB35
:104E5000F0E0808184608083E0EBF0E0808181601D
:104E60008083EAE7F0E080818460808380818260D3
:104E700080838081816080838081806880831092BC
:104E8000C1000895FC01918D228D892F90E0805CF6
:104E90009F4F821B91098F7399270895FC01918D73
:104EA000828D981731F0828DE80FF11D858D90E08D
:104EB00008958FEF9FEF0895FC01918D828D9817D3
:104EC00061F0A28DAE0FBF2FB11D5D968C91928DBA
:104ED0009F5F9F73928F90E008958FEF9FEF0895EB
:104EE000FC01538D448D252F30E0842F90E0821BF0
:104EF000930B541710F0CF96089501970895FC0175
:104F0000A48DA80FB92FB11DA35ABF4F2C91848D2A
:104F100090E001968F739927848FA689B7892C9387
:104F2000A089B1898C91837080648C93938D848DDA
:104F3000981306C00288F389E02D80818F7D8083DD
:104F40000895CF93DF93EC01888D8823B1F0AA896F
:104F5000BB89E889F9898C9185FD03C0808186FD34
:104F60000CC00FB607FCF7CF8C9185FFF2CF808184
:104F700085FFEDCFCE01C3DFEACFDF91CF9108955A
:104F8000EF92FF920F931F93CF93DF93EC0181E099
:104F9000888F9B8D8C8D98131AC0E889F989808140
:104FA00085FF15C09FB7F894EE89FF896083E88973
:104FB000F98980818370806480839FBF81E090E065
:104FC000DF91CF911F910F91FF90EF900895F62EF2
:104FD0000B8D10E00F5F1F4F0F731127E02E8C8D8C
:104FE0008E110BC00FB607FCFACFE889F9898081D2
:104FF00085FFF5CFCE0183DFF2CFEB8DEC0FFD2FD8
:10500000F11DE35AFF4FF0829FB7F8940B8FEA89A6
:10501000FB8980818062D0CFCF92DF92EF92FF92A6
:105020001F93CF93DF93EC016A017B01122FE88974
:10503000F98982E08083C11481EED806E104F1048D
:1050400099F060E079E08DE390E0A701960109D145
:1050500021503109410951095695479537952795B2
:10506000211580E1380790F0E889F989108260E81D
:1050700074E88EE190E0A7019601F3D02150310948
:10508000410951095695479537952795EC85FD853A
:105090003083EE85FF852083188EEC89FD8910838F
:1050A000EA89FB89808180618083EA89FB8980812C
:1050B00088608083EA89FB89808180688083EA89AF
:1050C000FB8980818F7D8083DF91CF911F91FF903D
:1050D000EF90DF90CF9008951F920F920FB60F922E
:1050E00011242F938F939F93EF93FF93E091E40408
:1050F000F091E5048081E091EA04F091EB0482FDF7
:105100001BC090818091ED048F5F8F732091EE041E
:10511000821741F0E091ED04F0E0EC52FB4F958FE7
:105120008093ED04FF91EF919F918F912F910F90BC
:105130000FBE0F901F9018958081F4CF1F920F9291
:105140000FB60F9211242F933F934F935F936F935A
:105150007F938F939F93AF93BF93EF93FF9384EDD0
:1051600094E0CDDEFF91EF91BF91AF919F918F9130
:105170007F916F915F914F913F912F910F900FBE53
:105180000F901F901895E4EDF4E01382128288EEE0
:1051900093E0A0E0B0E084839583A683B7838BE29D
:1051A00093E09183808385EC90E09587848784ECFD
:1051B00090E09787868780EC90E0918B808B81ECE4
:1051C00090E0938B828B82EC90E0958B848B86ECC5
:1051D00090E0978B868B118E128E138E148E08950D
:1051E000AF92BF92CF92DF92EF92FF920F931F93F5
:1051F000CF93DF936C017B018B01040F151FEB0133
:105200005E01AE18BF08C017D10759F06991D601E9
:10521000ED91FC910190F081E02DC6010995892B5B
:1052200079F7C501DF91CF911F910F91FF90EF901A
:10523000DF90CF90BF90AF900895089597FB072E11
:1052400016F4009406D077FD08D033D007FC05D0C3
:105250003EF4909581959F4F0895709561957F4F8D
:105260000895A1E21A2EAA1BBB1BFD010DC0AA1FA7
:10527000BB1FEE1FFF1FA217B307E407F50720F0BF
:10528000A21BB30BE40BF50B661F771F881F991F3A
:105290001A9469F760957095809590959B01AC0183
:1052A000BD01CF010895EE0FFF1F0590F491E02D91
:1052B0000994AA1BBB1B51E107C0AA1FBB1FA6175D
:1052C000B70710F0A61BB70B881F991F5A95A9F7AF
:1052D00080959095BC01CD0108950F931F93CF93B6
:1052E000DF93869F8001879F100D969F100D1124DC
:1052F000C8010DD0EC01009721F0A80170E060E03A
:1053000034D1CE01DF91CF911F910F9108950F936A
:105310001F93CF93DF938230910510F482E090E0E9
:10532000E0914306F091440630E020E0B0E0A0E0D8
:10533000309799F42115310509F44AC0281B390B1F
:1053400024303105D8F58A819B816115710589F179
:10535000FB0193838283FE0111C040815181028150
:10536000138148175907E0F04817590799F4109727
:1053700061F012960C93129713961C933296CF01FC
:10538000DF91CF911F910F910895009343061093E1
:105390004406F4CF2115310551F04217530738F078
:1053A000A901DB019A01BD01DF01F801C1CFEF01C5
:1053B000F9CF9093440680934306CDCFFE01E20FD0
:1053C000F31F819391932250310939832883D7CFDA
:1053D0002091410630914206232B41F42091020195
:1053E0003091030130934206209341062091000141
:1053F000309101012115310541F42DB73EB740919F
:10540000040150910501241B350BE0914106F091F8
:105410004206E217F307A0F42E1B3F0B28173907AB
:1054200078F0AC014E5F5F4F2417350748F04E0F00
:105430005F1F5093420640934106819391939FCF03
:10544000F0E0E0E09CCFCF93DF930097E9F0FC0120
:10545000329713821282A0914306B0914406ED0167
:1054600030E020E01097A1F420813181820F931F5A
:1054700020914106309142062817390709F061C092
:10548000F0934206E0934106DF91CF910895EA013F
:10549000CE17DF07E8F54A815B819E014115510572
:1054A000B1F7E901FB83EA8349915991C40FD51FF4
:1054B000EC17FD0761F4808191810296840F951F9E
:1054C000E90199838883828193819B838A83F0E0B9
:1054D000E0E012968D919C9113970097B9F52D916C
:1054E0003C911197CD010296820F931F20914106A6
:1054F000309142062817390739F6309751F5109246
:10550000440610924306B0934206A0934106BCCFD6
:10551000D383C28340815181840F951FC817D90757
:1055200061F44E5F5F4F88819981480F591F518305
:1055300040838A819B81938382832115310509F001
:10554000B0CFF0934406E09343069ECFFD01DC010B
:10555000C0CF13821282D7CFFB01DC0102C00190C1
:105560000D9241505040D8F70895DC0101C06D9371
:1055700041505040E0F70895FB01DC018D9101900E
:0E55800080190110D9F3990B0895F894FFCF0C
:10558E000000450680000000000000000000000042
:10559E00803F0000803F000000000000000000007F
:1055AE00000000008040000080400000C04000006D
:1055BE00C04000002041000000000000000000007C
:1055CE00803F0000803F000000000000000000004F
:1055DE00000000008040000080400000C04000003D
:1055EE00C04000002041000000000000000000004C
:1055FE00803F0000803F000000000000000000001F
:10560E00000000008040000080400000C04000000C
:10561E00C0400000204104009A011B06000000005B
:10562E00090071050B000000040085050A0000004A
:10563E0003008B050E000000030053025A026402A1
:10564E0063026C026B02750274027D028702920283
:10565E009802A202AB02BF02040004000100010086
:10566E000200020004000400010004000200020017
:10567E000400080030000101010004E78C3B6F12AA
:10568E00833ACDCCCC3D6F12833A0000803F00248C
:10569E00F44800247448000000000000803F0024FD
:1056AE0074490024F4480000000053696D756C6164
:1056BE0074696F6E2066696E697368656400466909
:1056CE0078656453746570446973637265746500BC
:1056DE00015C037265616C5F54007265616C3332FC
:1056EE005F540075696E74385F540075696E74315D
:1056FE00365F540075696E7433325F5400626F6F9B
:10570E006C65616E5F540066636E5F63616C6C5FA7
:10571E005400696E745F5400706F696E7465725FC9
:10572E005400616374696F6E5F540074696D6572C5
:10573E005F75696E7433325F706169725F54004DCC
:10574E00646C72656644575F52616E67696E675F1F
:10575E00457374696D61746F72305F54002D7700FC
:10576E002D69676E6F72652D61726700436F756C80
:10577E0064206E6F74206372656174652065787441
:10578E0065726E616C206D6F646520757365722035
:10579E00646174612E20204F7574206F66206D65D4
:1057AE006D6F72792E0A0000000000C027F028707D
:0A57BE0027A12742275C274E270091
:00000001FF
